S01700004763634170706C69636174696F6E322E737265635A
S11300000C9434000C9446000C9446000C94460066
S11300100C9446000C9446000C9446000C94460044
S11300200C9446000C9446000C9446000C94CF01AA
S11300300C9446000C9446000C9446000C94460024
S11300400C9446000C9446000C9446000C94460014
S11300500C9446000C9446000C9446000C94460004
S11300600C9446000C94460011241FBECFEFD8E038
S1130070DEBFCDBF21E0A0E0B1E001C01D92AA32F5
S1130080B207E1F70E9442050C94B5060C940000F7
S1130090CF93DF931F92CDB7DEB7198275C08981E4
S11300A0282F30E0C901880F991F880F991F880FE6
S11300B0991F821B930B895F9E4FFC0180818823CB
S11300C009F45FC08981282F30E0C901880F991F86
S11300D0880F991F880F991F821B930B8F5F9E4F68
S11300E0FC0180819181892B09F44BC08981282FDF
S11300F030E0C901880F991F880F991F880F991F35
S1130100821B930B8F5F9E4FFC0180819181FC01C8
S113011009958981282F30E08981482F50E0CA0150
S1130120880F991F880F991F880F991F841B950B9F
S1130130895F9E4FFC0180814FEF480FC901880FF2
S1130140991F880F991F880F991F821B930B895F32
S11301509E4FFC0140838981282F30E0C901880F1C
S1130160991F880F991F880F991F821B930B8B5F10
S11301709E4FFC0180819181892B19F489810E9411
S1130180500189818F5F89838981853008F487CF05
S113019000000F90DF91CF910895CF93DF93CDB7F7
S11301A0DEB727970FB6F894DEBF0FBECDBF9B8393
S11301B08A837D836C835F834E83198203C0898124
S11301C08F5F89838981282F30E0C901880F991FA7
S11301D0880F991F880F991F821B930B8F5F9E4F67
S11301E0FC0180819181892B19F08981853038F354
S11301F08981853011F485E04AC08981282F30E057
S1130200C901880F991F880F991F880F991F821B96
S1130210930B8F5F9E4F2A813B81FC0131832083A6
S11302208981282F30E0C901880F991F880F991FF1
S1130230880F991F821B930B8D5F9E4F2C813D81EC
S1130240FC01318320838981282F30E0C901880F84
S1130250991F880F991F880F991F821B930B8B5F1F
S11302609E4F2E813F81FC01318320838981282F79
S113027030E0C901880F991F880F991F880F991FB3
S1130280821B930B895F9E4FFC0110828981279604
S11302900FB6F894DEBF0FBECDBFDF91CF910895A6
S11302A0CF93DF9300D0CDB7DEB78A8319828A81DA
S11302B0282F30E0C901880F991F880F991F880FD4
S11302C0991F821B930B8F5F9E4FFC01118210823A
S11302D08A81282F30E0C901880F991F880F991F40
S11302E0880F991F821B930B8D5F9E4FFC01118217
S11302F010828A81282F30E0C901880F991F880F46
S1130300991F880F991F821B930B8B5F9E4FFC01D3
S1130310118210828A81282F30E0C901880F991F29
S1130320880F991F880F991F821B930B895F9E4F1B
S1130330FC01108289810F900F90DF91CF91089575
S1130340CF93DF931F92CDB7DEB7198206C08981A0
S11303500E94500189818F5F898389818530B8F338
S113036088E890E021E732E0FC013183208381E8D2
S113037090E02CE0FC0120838FE690E022E0FC0179
S1130380208300000F90DF91CF910895CF93DF93E6
S1130390CDB7DEB778940000DF91CF9108951F9216
S11303A00F9200905F000F9211242F933F934F936D
S11303B05F938F939F93EF93FF93CF93DF931F925A
S11303C0CDB7DEB71982CEC08981282F30E0C901AC
S11303D0880F991F880F991F880F991F821B930BF1
S11303E08F5F9E4FFC0180819181892B09F4B7C0F6
S11303F08981282F30E0C901880F991F880F991F20
S1130400880F991F821B930B8D5F9E4FFC01808187
S11304109181892B09F07EC08981282F30E0898160
S1130420482F50E0CA01880F991F880F991F880F21
S1130430991F841B950B895F9E4FFC01808141E0CD
S1130440480FC901880F991F880F991F880F991F9A
S1130450821B930B895F9E4FFC0140838981282F67
S113046030E0C901880F991F880F991F880F991FC1
S1130470821B930B8B5F9E4FFC0180819181892BA2
S113048009F46DC08981282F30E08981482F50E01C
S1130490CA01880F991F880F991F880F991F841B01
S11304A0950B8B5F9E4FFC0140815181C901880FE0
S11304B0991F880F991F880F991F821B930B8D5FBB
S11304C09E4FFC01518340838981282F30E089812C
S11304D0482F50E0CA01880F991F880F991F880F71
S11304E0991F841B950B8D5F9E4FFC018081918128
S11304F0AC0141505109C901880F991F880F991FF8
S1130500880F991F821B930B8D5F9E4FFC015183B3
S1130510408325C08981282F30E08981482F50E00D
S1130520CA01880F991F880F991F880F991F841B70
S1130530950B8D5F9E4FFC0180819181AC014150F0
S11305405109C901880F991F880F991F880F991F96
S1130550821B930B8D5F9E4FFC01518340838981E5
S11305608F5F89838981853008F42ECF00000F9036
S1130570DF91CF91FF91EF919F918F915F914F9177
S11305803F912F910F9000925F000F901F9018954C
S1130590CF93DF93CDB7DEB76D970FB6F894DEBF78
S11305A00FBECDBF9091260180910001981708F0ED
S11305B0FFC0809126018983F5C0809126018F5F59
S11305C0809326018BE290E028E0FC01208380E008
S11305D090E0AAEFB3E48A839B83AC83BD8320E0DD
S11305E030E04AE753E46A817B818C819D810E94DB
S11305F02006DC01CB018C8B9D8BAE8BBF8B20E066
S113060030E040E85FE36C897D898E899F890E9490
S11306109A0588232CF481E090E0998F888F3FC05D
S113062020E03FEF4FE757E46C897D898E899F89ED
S11306300E941B0618164CF520E030E040E251E41D
S11306406A817B818C819D810E942006DC01CB0123
S1130650BC01CD010E949F05DC01CB01998F888FDD
S11306600FC089E190E09B8F8A8F8A8D9B8D0197C3
S1130670F1F79B8F8A8F888D998D0197998F888F39
S1130680888D998D892B69F714C06C897D898E8931
S11306909F890E949F05DC01CB01998F888F888DEB
S11306A0998D9D8F8C8F8C8D9D8D0197F1F79D8FEA
S11306B08C8F8BE290E0FC01108280E090E0AAEF46
S11306C0B3E48E839F83A887B98720E030E04AE7AC
S11306D053E46E817F81888599850E942006DC0120
S11306E0CB018A879B87AC87BD8720E030E040E858
S11306F05FE36A857B858C859D850E949A058823A6
S11307002CF481E090E09F878E873FC020E03FEF8C
S11307104FE757E46A857B858C859D850E941B067F
S113072018164CF520E030E040E251E46E817F8100
S1130730888599850E942006DC01CB01BC01CD018E
S11307400E949F05DC01CB019F878E870FC089E142
S113075090E0998B888B888999890197F1F7998B17
S1130760888B8E859F8501979F878E878E859F8531
S1130770892B69F714C06A857B858C859D850E94C9
S11307809F05DC01CB019F878E878E859F859B8B80
S11307908A8B8A899B890197F1F79B8B8A8B898144
S11307A08F5F8983809100019981981708F405CFA0
S11307B08BE290E024E0FC01208300006D960FB6EC
S11307C0F894DEBF0FBECDBFDF91CF910895CF93D4
S11307D0DF93CDB7DEB76D970FB6F894DEBF0FBECB
S11307E0CDBF9091260180912801891708F0FFC0A0
S11307F0809126018983F5C08091260181508093E0
S113080026018BE290E028E0FC01208380E090E068
S1130810AAEFB3E48A839B83AC83BD8320E030E0FA
S11308204AE753E46A817B818C819D810E94200682
S1130830DC01CB018C8B9D8BAE8BBF8B20E030E039
S113084040E85FE36C897D898E899F890E949A05BF
S113085088232CF481E090E0998F888F3FC020E0BA
S11308603FEF4FE757E46C897D898E899F890E9409
S11308701B0618164CF520E030E040E251E46A8192
S11308807B818C819D810E942006DC01CB01BC010F
S1130890CD010E949F05DC01CB01998F888F0FC089
S11308A089E190E09B8F8A8F8A8D9B8D0197F1F768
S11308B09B8F8A8F888D998D0197998F888F888DCA
S11308C0998D892B69F714C06C897D898E899F89DC
S11308D00E949F05DC01CB01998F888F888D998DAB
S11308E09D8F8C8F8C8D9D8D0197F1F79D8F8C8FB3
S11308F08BE290E0FC01108280E090E0AAEFB3E488
S11309008E839F83A887B98720E030E04AE753E4C9
S11309106E817F81888599850E942006DC01CB0148
S11309208A879B87AC87BD8720E030E040E85FE39F
S11309306A857B858C859D850E949A0588232CF485
S113094081E090E09F878E873FC020E03FEF4FE734
S113095057E46A857B858C859D850E941B06181645
S11309604CF520E030E040E251E46E817F818885DF
S113097099850E942006DC01CB01BC01CD010E94B7
S11309809F05DC01CB019F878E870FC089E190E032
S1130990998B888B888999890197F1F7998B888B32
S11309A08E859F8501979F878E878E859F85892B4E
S11309B069F714C06A857B858C859D850E949F0597
S11309C0DC01CB019F878E878E859F859B8B8A8BCD
S11309D08A899B890197F1F79B8B8A8B8981815046
S11309E08983909128018981981708F405CF8BE2B7
S11309F090E020E1FC01208300006D960FB6F8948E
S1130A00DEBF0FBECDBFDF91CF910895CF93DF93AB
S1130A10CDB7DEB76CE070E081E090E00E942F0576
S1130A200000DF91CF910895CF93DF93CDB7DEB768
S1130A3062E370E082E090E00E942F050000DF9105
S1130A40CF910895CF93DF931F92CDB7DEB719826C
S1130A501982000000000F90DF91CF910895CF9389
S1130A60DF9300D000D0CDB7DEB79A8389837C832F
S1130A706B83000000000F900F900F900F90DF9198
S1130A80CF910895CF93DF9300D000D000D0CDB79D
S1130A90DEB710922701109226011092280184E1FA
S1130AA08093000110922901109224018AE290E0BF
S1130AB02CEFFC0120838BE290E0FC0110820E9469
S1130AC0A00141E050E060E070E082E295E00E9425
S1130AD0CD00882F90E09A83898340E951E060E05B
S1130AE070E086E095E00E94CD00882F90E09C8322
S1130AF08B834CE251E060E070E084E195E00E9479
S1130B00CD00882F90E09E838D8340ED57E060E018
S1130B1070E087EE93E00E94CD0040ED57E068EE70
S1130B2073E088EC92E00E94CD000E94C6010E940E
S1130B304800FDCF0E94CE0508F481E008950E948C
S1130B40FA0588F09F5798F0B92F9927B751B0F05C
S1130B50E1F0660F771F881F991F1AF0BA95C9F73D
S1130B6014C0B13091F00E941406B1E008950C94C1
S1130B701406672F782F8827B85F39F0B93FCCF374
S1130B80869577956795B395D9F73EF490958095BA
S1130B90709561957F4F8F4F9F4F0895990F00086F
S1130BA0550FAA0BE0E8FEEF16161706E807F9073B
S1130BB0C0F012161306E407F50798F0621B730BD6
S1130BC0840B950B39F40A2661F0232B242B252B57
S1130BD021F408950A2609F4A140A6958FEF811DFA
S1130BE0811D089557FD9058440F551F59F05F3FDC
S1130BF071F04795880F97FB991F61F09F3F79F03B
S1130C0087950895121613061406551FF2CF4695BC
S1130C10F1DF08C0161617061806991FF1CF86953E
S1130C207105610508940895E894BB276627772722
S1130C30CB0197F908950E94CE0508F48FEF08952B
S1130C400E9433060C94A4060E94960638F00E9473
S1130C509D0620F0952311F00C948D060C949306B8
S1130C6011240C9415060E94F20570F3959FC1F3AC
S1130C70950F50E0551F629FF001729FBB27F00D46
S1130C80B11D639FAA27F00DB11DAA1F649F66279B
S1130C90B00DA11D661F829F2227B00DA11D621FEA
S1130CA0739FB00DA11D621F839FA00D611D221FA4
S1130CB0749F3327A00D611D231F849F600D211D88
S1130CC0822F762F6A2F11249F5750409AF0F1F00B
S1130CD088234AF0EE0FFF1FBB1F661F771F881F74
S1130CE091505040A9F79E3F510580F00C948D0619
S1130CF00C9415065F3FE4F3983ED4F386957795FC
S1130D006795B795F795E7959F5FC1F7FE2B880F19
S1130D10911D9695879597F9089597F99F6780E8AF
S1130D2070E060E008959FEF80EC089500240A9439
S1130D301616170618060906089500240A941216B2
S1130D401306140605060895092E0394000C11F4E5
S1130D50882352F0BB0F40F4BF2B11F460FF04C092
S1110D606F5F7F4F8F4F9F4F0895F894FFCF22
S9030000FC
